{
  "address": "0x1c278d860F472DA204b24aA1BE6199aBd46c5dC3",
  "abi": [
    {
      "inputs": [
        {
          "internalType": "string",
          "name": "name_",
          "type": "string"
        },
        {
          "internalType": "string",
          "name": "symbol_",
          "type": "string"
        }
      ],
      "stateMutability": "nonpayable",
      "type": "constructor"
    },
    {
      "anonymous": false,
      "inputs": [
        {
          "indexed": true,
          "internalType": "address",
          "name": "owner",
          "type": "address"
        },
        {
          "indexed": true,
          "internalType": "address",
          "name": "approved",
          "type": "address"
        },
        {
          "indexed": true,
          "internalType": "uint256",
          "name": "tokenId",
          "type": "uint256"
        }
      ],
      "name": "Approval",
      "type": "event"
    },
    {
      "anonymous": false,
      "inputs": [
        {
          "indexed": true,
          "internalType": "address",
          "name": "owner",
          "type": "address"
        },
        {
          "indexed": true,
          "internalType": "address",
          "name": "operator",
          "type": "address"
        },
        {
          "indexed": false,
          "internalType": "bool",
          "name": "approved",
          "type": "bool"
        }
      ],
      "name": "ApprovalForAll",
      "type": "event"
    },
    {
      "anonymous": false,
      "inputs": [
        {
          "indexed": true,
          "internalType": "address",
          "name": "creator",
          "type": "address"
        },
        {
          "indexed": true,
          "internalType": "address",
          "name": "contractAddress",
          "type": "address"
        },
        {
          "indexed": false,
          "internalType": "string",
          "name": "name",
          "type": "string"
        },
        {
          "indexed": false,
          "internalType": "string",
          "name": "symbol",
          "type": "string"
        }
      ],
      "name": "NftContractCreated",
      "type": "event"
    },
    {
      "anonymous": false,
      "inputs": [
        {
          "indexed": true,
          "internalType": "address",
          "name": "creator",
          "type": "address"
        },
        {
          "indexed": true,
          "internalType": "address",
          "name": "contractAddress",
          "type": "address"
        },
        {
          "indexed": false,
          "internalType": "uint256",
          "name": "tokenId",
          "type": "uint256"
        },
        {
          "indexed": false,
          "internalType": "string",
          "name": "tokenUri",
          "type": "string"
        }
      ],
      "name": "NftMinted",
      "type": "event"
    },
    {
      "anonymous": false,
      "inputs": [
        {
          "indexed": true,
          "internalType": "address",
          "name": "from",
          "type": "address"
        },
        {
          "indexed": true,
          "internalType": "address",
          "name": "to",
          "type": "address"
        },
        {
          "indexed": true,
          "internalType": "uint256",
          "name": "tokenId",
          "type": "uint256"
        }
      ],
      "name": "Transfer",
      "type": "event"
    },
    {
      "inputs": [
        {
          "internalType": "address",
          "name": "to",
          "type": "address"
        },
        {
          "internalType": "uint256",
          "name": "tokenId",
          "type": "uint256"
        }
      ],
      "name": "approve",
      "outputs": [],
      "stateMutability": "nonpayable",
      "type": "function"
    },
    {
      "inputs": [
        {
          "internalType": "address",
          "name": "owner",
          "type": "address"
        }
      ],
      "name": "balanceOf",
      "outputs": [
        {
          "internalType": "uint256",
          "name": "",
          "type": "uint256"
        }
      ],
      "stateMutability": "view",
      "type": "function"
    },
    {
      "inputs": [
        {
          "internalType": "uint256",
          "name": "tokenId",
          "type": "uint256"
        }
      ],
      "name": "getApproved",
      "outputs": [
        {
          "internalType": "address",
          "name": "",
          "type": "address"
        }
      ],
      "stateMutability": "view",
      "type": "function"
    },
    {
      "inputs": [],
      "name": "getTokenCounter",
      "outputs": [
        {
          "internalType": "uint256",
          "name": "",
          "type": "uint256"
        }
      ],
      "stateMutability": "view",
      "type": "function"
    },
    {
      "inputs": [
        {
          "internalType": "address",
          "name": "owner",
          "type": "address"
        },
        {
          "internalType": "address",
          "name": "operator",
          "type": "address"
        }
      ],
      "name": "isApprovedForAll",
      "outputs": [
        {
          "internalType": "bool",
          "name": "",
          "type": "bool"
        }
      ],
      "stateMutability": "view",
      "type": "function"
    },
    {
      "inputs": [
        {
          "internalType": "string",
          "name": "tokenURI",
          "type": "string"
        }
      ],
      "name": "mintNft",
      "outputs": [
        {
          "internalType": "uint256",
          "name": "",
          "type": "uint256"
        }
      ],
      "stateMutability": "nonpayable",
      "type": "function"
    },
    {
      "inputs": [],
      "name": "name",
      "outputs": [
        {
          "internalType": "string",
          "name": "",
          "type": "string"
        }
      ],
      "stateMutability": "view",
      "type": "function"
    },
    {
      "inputs": [
        {
          "internalType": "uint256",
          "name": "tokenId",
          "type": "uint256"
        }
      ],
      "name": "ownerOf",
      "outputs": [
        {
          "internalType": "address",
          "name": "",
          "type": "address"
        }
      ],
      "stateMutability": "view",
      "type": "function"
    },
    {
      "inputs": [
        {
          "internalType": "address",
          "name": "from",
          "type": "address"
        },
        {
          "internalType": "address",
          "name": "to",
          "type": "address"
        },
        {
          "internalType": "uint256",
          "name": "tokenId",
          "type": "uint256"
        }
      ],
      "name": "safeTransferFrom",
      "outputs": [],
      "stateMutability": "nonpayable",
      "type": "function"
    },
    {
      "inputs": [
        {
          "internalType": "address",
          "name": "from",
          "type": "address"
        },
        {
          "internalType": "address",
          "name": "to",
          "type": "address"
        },
        {
          "internalType": "uint256",
          "name": "tokenId",
          "type": "uint256"
        },
        {
          "internalType": "bytes",
          "name": "data",
          "type": "bytes"
        }
      ],
      "name": "safeTransferFrom",
      "outputs": [],
      "stateMutability": "nonpayable",
      "type": "function"
    },
    {
      "inputs": [
        {
          "internalType": "address",
          "name": "operator",
          "type": "address"
        },
        {
          "internalType": "bool",
          "name": "approved",
          "type": "bool"
        }
      ],
      "name": "setApprovalForAll",
      "outputs": [],
      "stateMutability": "nonpayable",
      "type": "function"
    },
    {
      "inputs": [
        {
          "internalType": "bytes4",
          "name": "interfaceId",
          "type": "bytes4"
        }
      ],
      "name": "supportsInterface",
      "outputs": [
        {
          "internalType": "bool",
          "name": "",
          "type": "bool"
        }
      ],
      "stateMutability": "view",
      "type": "function"
    },
    {
      "inputs": [],
      "name": "symbol",
      "outputs": [
        {
          "internalType": "string",
          "name": "",
          "type": "string"
        }
      ],
      "stateMutability": "view",
      "type": "function"
    },
    {
      "inputs": [
        {
          "internalType": "uint256",
          "name": "tokenId",
          "type": "uint256"
        }
      ],
      "name": "tokenURI",
      "outputs": [
        {
          "internalType": "string",
          "name": "",
          "type": "string"
        }
      ],
      "stateMutability": "view",
      "type": "function"
    },
    {
      "inputs": [
        {
          "internalType": "address",
          "name": "from",
          "type": "address"
        },
        {
          "internalType": "address",
          "name": "to",
          "type": "address"
        },
        {
          "internalType": "uint256",
          "name": "tokenId",
          "type": "uint256"
        }
      ],
      "name": "transferFrom",
      "outputs": [],
      "stateMutability": "nonpayable",
      "type": "function"
    }
  ],
  "transactionHash": "0x0c9ee309df2c50b069a157687f5218920b55ad0e1fec79c343334050afcce55d",
  "args": [
    "Test NFT",
    "TNFT"
  ],
  "numDeployments": 3,
  "solcInputHash": "dfdf8c0fb18a261cf878606706e33f7e",
  "bytecode": "0x60806040523480156200001157600080fd5b5060405162001aac38038062001aac833981016040819052620000349162000233565b8151829082906200004d906000906020850190620000b3565b50805162000063906001906020840190620000b3565b5050600060075550604051309033907f34beccd30f07654ffd437c242292dae9af395f1277bf1f98f9f54b5f589c187590620000a39086908690620002cb565b60405180910390a350506200033a565b828054620000c190620002fd565b90600052602060002090601f016020900481019282620000e5576000855562000130565b82601f106200010057805160ff191683800117855562000130565b8280016001018555821562000130579182015b828111156200013057825182559160200191906001019062000113565b506200013e92915062000142565b5090565b5b808211156200013e576000815560010162000143565b634e487b7160e01b600052604160045260246000fd5b60005b838110156200018c57818101518382015260200162000172565b838111156200019c576000848401525b50505050565b600082601f830112620001b457600080fd5b81516001600160401b0380821115620001d157620001d162000159565b604051601f8301601f19908116603f01168101908282118183101715620001fc57620001fc62000159565b816040528381528660208588010111156200021657600080fd5b620002298460208301602089016200016f565b9695505050505050565b600080604083850312156200024757600080fd5b82516001600160401b03808211156200025f57600080fd5b6200026d86838701620001a2565b935060208501519150808211156200028457600080fd5b506200029385828601620001a2565b9150509250929050565b60008151808452620002b78160208601602086016200016f565b601f01601f19169290920160200192915050565b604081526000620002e060408301856200029d565b8281036020840152620002f481856200029d565b95945050505050565b600181811c908216806200031257607f821691505b602082108114156200033457634e487b7160e01b600052602260045260246000fd5b50919050565b611762806200034a6000396000f3fe608060405234801561001057600080fd5b50600436106100f55760003560e01c80636e02007d11610097578063b88d4fde11610066578063b88d4fde146101f0578063c87b56dd14610203578063da86f4a914610216578063e985e9c51461022957600080fd5b80636e02007d146101b057806370a08231146101c257806395d89b41146101d5578063a22cb465146101dd57600080fd5b8063095ea7b3116100d3578063095ea7b31461016257806323b872dd1461017757806342842e0e1461018a5780636352211e1461019d57600080fd5b806301ffc9a7146100fa57806306fdde0314610122578063081812fc14610137575b600080fd5b61010d61010836600461120d565b610265565b60405190151581526020015b60405180910390f35b61012a6102b7565b6040516101199190611282565b61014a610145366004611295565b610349565b6040516001600160a01b039091168152602001610119565b6101756101703660046112ca565b610370565b005b6101756101853660046112f4565b61048b565b6101756101983660046112f4565b6104bc565b61014a6101ab366004611295565b6104d7565b6007545b604051908152602001610119565b6101b46101d0366004611330565b610537565b61012a6105bd565b6101756101eb36600461134b565b6105cc565b6101756101fe366004611413565b6105db565b61012a610211366004611295565b610613565b6101b461022436600461148f565b610724565b61010d6102373660046114d8565b6001600160a01b03918216600090815260056020908152604080832093909416825291909152205460ff1690565b60006001600160e01b031982166380ac58cd60e01b148061029657506001600160e01b03198216635b5e139f60e01b145b806102b157506301ffc9a760e01b6001600160e01b03198316145b92915050565b6060600080546102c69061150b565b80601f01602080910402602001604051908101604052809291908181526020018280546102f29061150b565b801561033f5780601f106103145761010080835404028352916020019161033f565b820191906000526020600020905b81548152906001019060200180831161032257829003601f168201915b5050505050905090565b60006103548261079f565b506000908152600460205260409020546001600160a01b031690565b600061037b826104d7565b9050806001600160a01b0316836001600160a01b031614156103ee5760405162461bcd60e51b815260206004820152602160248201527f4552433732313a20617070726f76616c20746f2063757272656e74206f776e656044820152603960f91b60648201526084015b60405180910390fd5b336001600160a01b038216148061040a575061040a8133610237565b61047c5760405162461bcd60e51b815260206004820152603d60248201527f4552433732313a20617070726f76652063616c6c6572206973206e6f7420746f60448201527f6b656e206f776e6572206f7220617070726f76656420666f7220616c6c00000060648201526084016103e5565b6104868383610801565b505050565b610495338261086f565b6104b15760405162461bcd60e51b81526004016103e590611546565b6104868383836108ed565b610486838383604051806020016040528060008152506105db565b6000818152600260205260408120546001600160a01b0316806102b15760405162461bcd60e51b8152602060048201526018602482015277115490cdcc8c4e881a5b9d985b1a59081d1bdad95b88125160421b60448201526064016103e5565b60006001600160a01b0382166105a15760405162461bcd60e51b815260206004820152602960248201527f4552433732313a2061646472657373207a65726f206973206e6f7420612076616044820152683634b21037bbb732b960b91b60648201526084016103e5565b506001600160a01b031660009081526003602052604090205490565b6060600180546102c69061150b565b6105d7338383610a5e565b5050565b6105e5338361086f565b6106015760405162461bcd60e51b81526004016103e590611546565b61060d84848484610b2d565b50505050565b606061061e8261079f565b600082815260066020526040812080546106379061150b565b80601f01602080910402602001604051908101604052809291908181526020018280546106639061150b565b80156106b05780601f10610685576101008083540402835291602001916106b0565b820191906000526020600020905b81548152906001019060200180831161069357829003601f168201915b5050505050905060006106ce60408051602081019091526000815290565b90508051600014156106e1575092915050565b8151156107135780826040516020016106fb929190611593565b60405160208183030381529060405292505050919050565b61071c84610b60565b949350505050565b600061073233600754610bd4565b61073e60075483610bee565b600754604051309133917f4d48ea9241f73d27a8aee7815080fc45144554557b2ee1d04a8b83bf7b8b8dde916107759187906115c2565b60405180910390a360076000815461078c906115f1565b909155506007546102b19060019061160c565b6000818152600260205260409020546001600160a01b03166107fe5760405162461bcd60e51b8152602060048201526018602482015277115490cdcc8c4e881a5b9d985b1a59081d1bdad95b88125160421b60448201526064016103e5565b50565b600081815260046020526040902080546001600160a01b0319166001600160a01b0384169081179091558190610836826104d7565b6001600160a01b03167f8c5be1e5ebec7d5bd14f71427d1e84f3dd0314c0f7b2291e5b200ac8c7c3b92560405160405180910390a45050565b60008061087b836104d7565b9050806001600160a01b0316846001600160a01b031614806108c257506001600160a01b0380821660009081526005602090815260408083209388168352929052205460ff165b8061071c5750836001600160a01b03166108db84610349565b6001600160a01b031614949350505050565b826001600160a01b0316610900826104d7565b6001600160a01b0316146109265760405162461bcd60e51b81526004016103e590611623565b6001600160a01b0382166109885760405162461bcd60e51b8152602060048201526024808201527f4552433732313a207472616e7366657220746f20746865207a65726f206164646044820152637265737360e01b60648201526084016103e5565b6109958383836001610c88565b826001600160a01b03166109a8826104d7565b6001600160a01b0316146109ce5760405162461bcd60e51b81526004016103e590611623565b600081815260046020908152604080832080546001600160a01b03199081169091556001600160a01b0387811680865260038552838620805460001901905590871680865283862080546001019055868652600290945282852080549092168417909155905184937fddf252ad1be2c89b69c2b068fc378daa952ba7f163c4a11628f55a4df523b3ef91a4505050565b816001600160a01b0316836001600160a01b03161415610ac05760405162461bcd60e51b815260206004820152601960248201527f4552433732313a20617070726f766520746f2063616c6c65720000000000000060448201526064016103e5565b6001600160a01b03838116600081815260056020908152604080832094871680845294825291829020805460ff191686151590811790915591519182527f17307eab39ab6107e8899845ad3d59bd9653f200f220920489ca2b5937696c31910160405180910390a3505050565b610b388484846108ed565b610b4484848484610d10565b61060d5760405162461bcd60e51b81526004016103e590611668565b6060610b6b8261079f565b6000610b8260408051602081019091526000815290565b90506000815111610ba25760405180602001604052806000815250610bcd565b80610bac84610e1d565b604051602001610bbd929190611593565b6040516020818303038152906040525b9392505050565b6105d7828260405180602001604052806000815250610eba565b6000828152600260205260409020546001600160a01b0316610c695760405162461bcd60e51b815260206004820152602e60248201527f45524337323155524953746f726167653a2055524920736574206f66206e6f6e60448201526d32bc34b9ba32b73a103a37b5b2b760911b60648201526084016103e5565b600082815260066020908152604090912082516104869284019061115e565b600181111561060d576001600160a01b03841615610cce576001600160a01b03841660009081526003602052604081208054839290610cc890849061160c565b90915550505b6001600160a01b0383161561060d576001600160a01b03831660009081526003602052604081208054839290610d059084906116ba565b909155505050505050565b60006001600160a01b0384163b15610e1257604051630a85bd0160e11b81526001600160a01b0385169063150b7a0290610d549033908990889088906004016116d2565b602060405180830381600087803b158015610d6e57600080fd5b505af1925050508015610d9e575060408051601f3d908101601f19168201909252610d9b9181019061170f565b60015b610df8573d808015610dcc576040519150601f19603f3d011682016040523d82523d6000602084013e610dd1565b606091505b508051610df05760405162461bcd60e51b81526004016103e590611668565b805181602001fd5b6001600160e01b031916630a85bd0160e11b14905061071c565b506001949350505050565b60606000610e2a83610eed565b600101905060008167ffffffffffffffff811115610e4a57610e4a611387565b6040519080825280601f01601f191660200182016040528015610e74576020820181803683370190505b5090508181016020015b600019016f181899199a1a9b1b9c1cb0b131b232b360811b600a86061a8153600a8504945084610ead57610eb2565b610e7e565b509392505050565b610ec48383610fc5565b610ed16000848484610d10565b6104865760405162461bcd60e51b81526004016103e590611668565b60008072184f03e93ff9f4daa797ed6e38ed64bf6a1f0160401b8310610f2c5772184f03e93ff9f4daa797ed6e38ed64bf6a1f0160401b830492506040015b6d04ee2d6d415b85acef81000000008310610f58576d04ee2d6d415b85acef8100000000830492506020015b662386f26fc100008310610f7657662386f26fc10000830492506010015b6305f5e1008310610f8e576305f5e100830492506008015b6127108310610fa257612710830492506004015b60648310610fb4576064830492506002015b600a83106102b15760010192915050565b6001600160a01b03821661101b5760405162461bcd60e51b815260206004820181905260248201527f4552433732313a206d696e7420746f20746865207a65726f206164647265737360448201526064016103e5565b6000818152600260205260409020546001600160a01b0316156110805760405162461bcd60e51b815260206004820152601c60248201527f4552433732313a20746f6b656e20616c7265616479206d696e7465640000000060448201526064016103e5565b61108e600083836001610c88565b6000818152600260205260409020546001600160a01b0316156110f35760405162461bcd60e51b815260206004820152601c60248201527f4552433732313a20746f6b656e20616c7265616479206d696e7465640000000060448201526064016103e5565b6001600160a01b038216600081815260036020908152604080832080546001019055848352600290915280822080546001600160a01b0319168417905551839291907fddf252ad1be2c89b69c2b068fc378daa952ba7f163c4a11628f55a4df523b3ef908290a45050565b82805461116a9061150b565b90600052602060002090601f01602090048101928261118c57600085556111d2565b82601f106111a557805160ff19168380011785556111d2565b828001600101855582156111d2579182015b828111156111d25782518255916020019190600101906111b7565b506111de9291506111e2565b5090565b5b808211156111de57600081556001016111e3565b6001600160e01b0319811681146107fe57600080fd5b60006020828403121561121f57600080fd5b8135610bcd816111f7565b60005b8381101561124557818101518382015260200161122d565b8381111561060d5750506000910152565b6000815180845261126e81602086016020860161122a565b601f01601f19169290920160200192915050565b602081526000610bcd6020830184611256565b6000602082840312156112a757600080fd5b5035919050565b80356001600160a01b03811681146112c557600080fd5b919050565b600080604083850312156112dd57600080fd5b6112e6836112ae565b946020939093013593505050565b60008060006060848603121561130957600080fd5b611312846112ae565b9250611320602085016112ae565b9150604084013590509250925092565b60006020828403121561134257600080fd5b610bcd826112ae565b6000806040838503121561135e57600080fd5b611367836112ae565b91506020830135801515811461137c57600080fd5b809150509250929050565b634e487b7160e01b600052604160045260246000fd5b600067ffffffffffffffff808411156113b8576113b8611387565b604051601f8501601f19908116603f011681019082821181831017156113e0576113e0611387565b816040528093508581528686860111156113f957600080fd5b858560208301376000602087830101525050509392505050565b6000806000806080858703121561142957600080fd5b611432856112ae565b9350611440602086016112ae565b925060408501359150606085013567ffffffffffffffff81111561146357600080fd5b8501601f8101871361147457600080fd5b6114838782356020840161139d565b91505092959194509250565b6000602082840312156114a157600080fd5b813567ffffffffffffffff8111156114b857600080fd5b8201601f810184136114c957600080fd5b61071c8482356020840161139d565b600080604083850312156114eb57600080fd5b6114f4836112ae565b9150611502602084016112ae565b90509250929050565b600181811c9082168061151f57607f821691505b6020821081141561154057634e487b7160e01b600052602260045260246000fd5b50919050565b6020808252602d908201527f4552433732313a2063616c6c6572206973206e6f7420746f6b656e206f776e6560408201526c1c881bdc88185c1c1c9bdd9959609a1b606082015260800190565b600083516115a581846020880161122a565b8351908301906115b981836020880161122a565b01949350505050565b82815260406020820152600061071c6040830184611256565b634e487b7160e01b600052601160045260246000fd5b6000600019821415611605576116056115db565b5060010190565b60008282101561161e5761161e6115db565b500390565b60208082526025908201527f4552433732313a207472616e736665722066726f6d20696e636f72726563742060408201526437bbb732b960d91b606082015260800190565b60208082526032908201527f4552433732313a207472616e7366657220746f206e6f6e20455243373231526560408201527131b2b4bb32b91034b6b83632b6b2b73a32b960711b606082015260800190565b600082198211156116cd576116cd6115db565b500190565b6001600160a01b038581168252841660208201526040810183905260806060820181905260009061170590830184611256565b9695505050505050565b60006020828403121561172157600080fd5b8151610bcd816111f756fea2646970667358221220774462fa7aadd4e6e31dfac8d5f5540d6bc4c14a36b43378305228fe107d66d664736f6c63430008090033",
  "devdoc": {
    "kind": "dev",
    "methods": {
      "approve(address,uint256)": {
        "details": "See {IERC721-approve}."
      },
      "balanceOf(address)": {
        "details": "See {IERC721-balanceOf}."
      },
      "getApproved(uint256)": {
        "details": "See {IERC721-getApproved}."
      },
      "isApprovedForAll(address,address)": {
        "details": "See {IERC721-isApprovedForAll}."
      },
      "name()": {
        "details": "See {IERC721Metadata-name}."
      },
      "ownerOf(uint256)": {
        "details": "See {IERC721-ownerOf}."
      },
      "safeTransferFrom(address,address,uint256)": {
        "details": "See {IERC721-safeTransferFrom}."
      },
      "safeTransferFrom(address,address,uint256,bytes)": {
        "details": "See {IERC721-safeTransferFrom}."
      },
      "setApprovalForAll(address,bool)": {
        "details": "See {IERC721-setApprovalForAll}."
      },
      "supportsInterface(bytes4)": {
        "details": "See {IERC165-supportsInterface}."
      },
      "symbol()": {
        "details": "See {IERC721Metadata-symbol}."
      },
      "tokenURI(uint256)": {
        "details": "See {IERC721Metadata-tokenURI}."
      },
      "transferFrom(address,address,uint256)": {
        "details": "See {IERC721-transferFrom}."
      }
    },
    "version": 1
  },
  "userdoc": {
    "kind": "user",
    "methods": {},
    "version": 1
  },
  "storageLayout": {
    "storage": [
      {
        "astId": 192,
        "contract": "contracts/NftContract.sol:NftContract",
        "label": "_name",
        "offset": 0,
        "slot": "0",
        "type": "t_string_storage"
      },
      {
        "astId": 194,
        "contract": "contracts/NftContract.sol:NftContract",
        "label": "_symbol",
        "offset": 0,
        "slot": "1",
        "type": "t_string_storage"
      },
      {
        "astId": 198,
        "contract": "contracts/NftContract.sol:NftContract",
        "label": "_owners",
        "offset": 0,
        "slot": "2",
        "type": "t_mapping(t_uint256,t_address)"
      },
      {
        "astId": 202,
        "contract": "contracts/NftContract.sol:NftContract",
        "label": "_balances",
        "offset": 0,
        "slot": "3",
        "type": "t_mapping(t_address,t_uint256)"
      },
      {
        "astId": 206,
        "contract": "contracts/NftContract.sol:NftContract",
        "label": "_tokenApprovals",
        "offset": 0,
        "slot": "4",
        "type": "t_mapping(t_uint256,t_address)"
      },
      {
        "astId": 212,
        "contract": "contracts/NftContract.sol:NftContract",
        "label": "_operatorApprovals",
        "offset": 0,
        "slot": "5",
        "type": "t_mapping(t_address,t_mapping(t_address,t_bool))"
      },
      {
        "astId": 1258,
        "contract": "contracts/NftContract.sol:NftContract",
        "label": "_tokenURIs",
        "offset": 0,
        "slot": "6",
        "type": "t_mapping(t_uint256,t_string_storage)"
      },
      {
        "astId": 3193,
        "contract": "contracts/NftContract.sol:NftContract",
        "label": "s_tokenCounter",
        "offset": 0,
        "slot": "7",
        "type": "t_uint256"
      }
    ],
    "types": {
      "t_address": {
        "encoding": "inplace",
        "label": "address",
        "numberOfBytes": "20"
      },
      "t_bool": {
        "encoding": "inplace",
        "label": "bool",
        "numberOfBytes": "1"
      },
      "t_mapping(t_address,t_bool)": {
        "encoding": "mapping",
        "key": "t_address",
        "label": "mapping(address => bool)",
        "numberOfBytes": "32",
        "value": "t_bool"
      },
      "t_mapping(t_address,t_mapping(t_address,t_bool))": {
        "encoding": "mapping",
        "key": "t_address",
        "label": "mapping(address => mapping(address => bool))",
        "numberOfBytes": "32",
        "value": "t_mapping(t_address,t_bool)"
      },
      "t_mapping(t_address,t_uint256)": {
        "encoding": "mapping",
        "key": "t_address",
        "label": "mapping(address => uint256)",
        "numberOfBytes": "32",
        "value": "t_uint256"
      },
      "t_mapping(t_uint256,t_address)": {
        "encoding": "mapping",
        "key": "t_uint256",
        "label": "mapping(uint256 => address)",
        "numberOfBytes": "32",
        "value": "t_address"
      },
      "t_mapping(t_uint256,t_string_storage)": {
        "encoding": "mapping",
        "key": "t_uint256",
        "label": "mapping(uint256 => string)",
        "numberOfBytes": "32",
        "value": "t_string_storage"
      },
      "t_string_storage": {
        "encoding": "bytes",
        "label": "string",
        "numberOfBytes": "32"
      },
      "t_uint256": {
        "encoding": "inplace",
        "label": "uint256",
        "numberOfBytes": "32"
      }
    }
  }
}