{
  "address": "0x97dAcE6942894d7E002C575e35Ab5e14aA093297",
  "abi": [
    {
      "inputs": [
        {
          "internalType": "address",
          "name": "nftAddress",
          "type": "address"
        },
        {
          "internalType": "uint256",
          "name": "tokenId",
          "type": "uint256"
        }
      ],
      "name": "NftMarketPlace__AlreadyListed",
      "type": "error"
    },
    {
      "inputs": [],
      "name": "NftMarketPlace__CollectionOwnerProceedsTransferFailed",
      "type": "error"
    },
    {
      "inputs": [],
      "name": "NftMarketPlace__MarketplaceProceedsTransferFailed",
      "type": "error"
    },
    {
      "inputs": [],
      "name": "NftMarketPlace__NotApprovedForMarketPlace",
      "type": "error"
    },
    {
      "inputs": [
        {
          "internalType": "address",
          "name": "nftAddress",
          "type": "address"
        },
        {
          "internalType": "uint256",
          "name": "tokenId",
          "type": "uint256"
        }
      ],
      "name": "NftMarketPlace__NotListed",
      "type": "error"
    },
    {
      "inputs": [],
      "name": "NftMarketPlace__NotOwner",
      "type": "error"
    },
    {
      "inputs": [],
      "name": "NftMarketPlace__NotSignedByMarketplaceOwner",
      "type": "error"
    },
    {
      "inputs": [],
      "name": "NftMarketPlace__PriceMustBeAboveZero",
      "type": "error"
    },
    {
      "inputs": [
        {
          "internalType": "address",
          "name": "nftAddress",
          "type": "address"
        },
        {
          "internalType": "uint256",
          "name": "tokenId",
          "type": "uint256"
        },
        {
          "internalType": "uint256",
          "name": "price",
          "type": "uint256"
        }
      ],
      "name": "NftMarketPlace__PriceNotMet",
      "type": "error"
    },
    {
      "inputs": [],
      "name": "NftMarketPlace__SellerProceedsTransferFailed",
      "type": "error"
    },
    {
      "anonymous": false,
      "inputs": [
        {
          "indexed": true,
          "internalType": "address",
          "name": "buyer",
          "type": "address"
        },
        {
          "indexed": true,
          "internalType": "address",
          "name": "nftAddress",
          "type": "address"
        },
        {
          "indexed": true,
          "internalType": "uint256",
          "name": "tokenId",
          "type": "uint256"
        },
        {
          "indexed": false,
          "internalType": "uint256",
          "name": "price",
          "type": "uint256"
        }
      ],
      "name": "ItemBought",
      "type": "event"
    },
    {
      "anonymous": false,
      "inputs": [
        {
          "indexed": true,
          "internalType": "address",
          "name": "seller",
          "type": "address"
        },
        {
          "indexed": true,
          "internalType": "address",
          "name": "nftAddress",
          "type": "address"
        },
        {
          "indexed": true,
          "internalType": "uint256",
          "name": "tokenId",
          "type": "uint256"
        }
      ],
      "name": "ItemCanceled",
      "type": "event"
    },
    {
      "anonymous": false,
      "inputs": [
        {
          "indexed": true,
          "internalType": "address",
          "name": "seller",
          "type": "address"
        },
        {
          "indexed": true,
          "internalType": "address",
          "name": "nftAddress",
          "type": "address"
        },
        {
          "indexed": true,
          "internalType": "uint256",
          "name": "tokenId",
          "type": "uint256"
        },
        {
          "indexed": false,
          "internalType": "uint256",
          "name": "price",
          "type": "uint256"
        }
      ],
      "name": "ItemListed",
      "type": "event"
    },
    {
      "anonymous": false,
      "inputs": [
        {
          "indexed": true,
          "internalType": "address",
          "name": "previousOwner",
          "type": "address"
        },
        {
          "indexed": true,
          "internalType": "address",
          "name": "newOwner",
          "type": "address"
        }
      ],
      "name": "OwnershipTransferred",
      "type": "event"
    },
    {
      "anonymous": false,
      "inputs": [
        {
          "indexed": true,
          "internalType": "address",
          "name": "seller",
          "type": "address"
        },
        {
          "indexed": false,
          "internalType": "uint256",
          "name": "totalAmount",
          "type": "uint256"
        },
        {
          "indexed": false,
          "internalType": "uint16",
          "name": "marketplaceFee",
          "type": "uint16"
        },
        {
          "indexed": false,
          "internalType": "uint16",
          "name": "collectionFee",
          "type": "uint16"
        }
      ],
      "name": "ProceedsTransferred",
      "type": "event"
    },
    {
      "inputs": [
        {
          "internalType": "bytes",
          "name": "signature",
          "type": "bytes"
        },
        {
          "internalType": "address",
          "name": "collectionOwner",
          "type": "address"
        },
        {
          "internalType": "uint16",
          "name": "collectionFee",
          "type": "uint16"
        },
        {
          "internalType": "address",
          "name": "nftAddress",
          "type": "address"
        },
        {
          "internalType": "uint256",
          "name": "tokenId",
          "type": "uint256"
        }
      ],
      "name": "buyItem",
      "outputs": [],
      "stateMutability": "payable",
      "type": "function"
    },
    {
      "inputs": [
        {
          "internalType": "address",
          "name": "nftAddress",
          "type": "address"
        },
        {
          "internalType": "uint256",
          "name": "tokenId",
          "type": "uint256"
        }
      ],
      "name": "cancelListing",
      "outputs": [],
      "stateMutability": "nonpayable",
      "type": "function"
    },
    {
      "inputs": [
        {
          "internalType": "address",
          "name": "nftAddress",
          "type": "address"
        },
        {
          "internalType": "uint256",
          "name": "tokenId",
          "type": "uint256"
        }
      ],
      "name": "getListing",
      "outputs": [
        {
          "components": [
            {
              "internalType": "uint256",
              "name": "price",
              "type": "uint256"
            },
            {
              "internalType": "address",
              "name": "seller",
              "type": "address"
            }
          ],
          "internalType": "struct NftMarketplace.Listing",
          "name": "",
          "type": "tuple"
        }
      ],
      "stateMutability": "view",
      "type": "function"
    },
    {
      "inputs": [],
      "name": "getMarketplaceFee",
      "outputs": [
        {
          "internalType": "uint16",
          "name": "",
          "type": "uint16"
        }
      ],
      "stateMutability": "view",
      "type": "function"
    },
    {
      "inputs": [
        {
          "internalType": "address",
          "name": "nftAddress",
          "type": "address"
        },
        {
          "internalType": "uint256",
          "name": "tokenId",
          "type": "uint256"
        },
        {
          "internalType": "uint256",
          "name": "price",
          "type": "uint256"
        }
      ],
      "name": "listItem",
      "outputs": [],
      "stateMutability": "nonpayable",
      "type": "function"
    },
    {
      "inputs": [],
      "name": "owner",
      "outputs": [
        {
          "internalType": "address",
          "name": "",
          "type": "address"
        }
      ],
      "stateMutability": "view",
      "type": "function"
    },
    {
      "inputs": [],
      "name": "renounceOwnership",
      "outputs": [],
      "stateMutability": "nonpayable",
      "type": "function"
    },
    {
      "inputs": [
        {
          "internalType": "uint16",
          "name": "newFee",
          "type": "uint16"
        }
      ],
      "name": "setMarketplaceFee",
      "outputs": [],
      "stateMutability": "nonpayable",
      "type": "function"
    },
    {
      "inputs": [
        {
          "internalType": "address",
          "name": "newOwner",
          "type": "address"
        }
      ],
      "name": "transferOwnership",
      "outputs": [],
      "stateMutability": "nonpayable",
      "type": "function"
    },
    {
      "inputs": [
        {
          "internalType": "address",
          "name": "nftAddress",
          "type": "address"
        },
        {
          "internalType": "uint256",
          "name": "tokenId",
          "type": "uint256"
        },
        {
          "internalType": "uint256",
          "name": "newPrice",
          "type": "uint256"
        }
      ],
      "name": "updateListing",
      "outputs": [],
      "stateMutability": "nonpayable",
      "type": "function"
    }
  ],
  "transactionHash": "0x86d4784596367e0669bd5ce4cf8b5b72fcba5002289293a7b1d4dcb6d108343a",
  "args": [],
  "numDeployments": 2,
  "solcInputHash": "94fd2eb2270225c0ea5076fd0af0ee3a",
  "bytecode": "0x60806040526001805461ffff60a01b1916607d60a11b17905534801561002457600080fd5b50600160005561003333610038565b61008a565b600180546001600160a01b038381166001600160a01b0319831681179093556040519116919082907f8be0079c531659141344cd1fd0a4f28419497f9722a3daafe3b4186f6b6457e090600090a35050565b611461806100996000396000f3fe6080604052600436106100915760003560e01c806389bfd38f1161005957806389bfd38f146101a05780638da5cb5b146101c0578063b2ddee06146101e8578063f2fde38b14610208578063f772adf11461022857600080fd5b80630a45d4f41461009657806326a7b37b146100b8578063715018a6146100eb578063796bd8cf1461010057806388700d1c14610113575b600080fd5b3480156100a257600080fd5b506100b66100b1366004611226565b610248565b005b3480156100c457600080fd5b50600154600160a01b900461ffff1660405161ffff90911681526020015b60405180910390f35b3480156100f757600080fd5b506100b6610272565b6100b661010e36600461125d565b610286565b34801561011f57600080fd5b5061017c61012e36600461130c565b604080518082018252600080825260209182018190526001600160a01b0394851681526002825282812093815292815291819020815180830190925280548252600101549092169082015290565b60408051825181526020928301516001600160a01b031692810192909252016100e2565b3480156101ac57600080fd5b506100b66101bb366004611338565b61048b565b3480156101cc57600080fd5b506001546040516001600160a01b0390911681526020016100e2565b3480156101f457600080fd5b506100b661020336600461130c565b610766565b34801561021457600080fd5b506100b661022336600461136d565b6108fe565b34801561023457600080fd5b506100b6610243366004611338565b610977565b610250610b1c565b6001805461ffff909216600160a01b0261ffff60a01b19909216919091179055565b61027a610b1c565b6102846000610b76565b565b61028e610bc8565b6001600160a01b0380831660009081526002602090815260408083208584528252918290208251808401909352805480845260019091015490931690820152839183919061030657604051630173285f60e51b81526001600160a01b0384166004820152602481018390526044015b60405180910390fd5b6001600160a01b038086166000908152600260209081526040808320888452825291829020825180840190935280548084526001909101549093169082015290341015610382578051604051632425ddb360e01b81526001600160a01b03881660048201526024810187905260448101919091526064016102fd565b6001600160a01b0386811660008181526002602090815260408083208a84528252808320928355600190920180546001600160a01b03191690558401519051632142170760e11b81529216600483015233602483015260448201879052906342842e0e90606401600060405180830381600087803b15801561040357600080fd5b505af1158015610417573d6000803e3d6000fd5b505050506104318a8a8a8a85602001518660000151610c22565b805160405190815285906001600160a01b0388169033907f263223b1dd81e51054a4e6f791d45a4a1ddb4aadcd93a2dfd892615c3fdac1879060200160405180910390a4505050506104836001600055565b505050505050565b6001600160a01b0380841660009081526002602090815260408083208684528252918290208251808401909352805480845260019091015490931690820152849184913391156105005760405163fa1d424f60e01b81526001600160a01b0385166004820152602481018490526044016102fd565b6040516331a9108f60e11b81526004810187905287908790339083906000906001600160a01b03831690636352211e9060240160206040518083038186803b15801561054b57600080fd5b505afa15801561055f573d6000803e3d6000fd5b505050506040513d601f19601f82011682018060405250810190610583919061138a565b9050806001600160a01b0316836001600160a01b0316146105b7576040516349731c3b60e01b815260040160405180910390fd5b60008a116105d8576040516301e6e2e760e01b815260040160405180910390fd5b60405163020604bf60e21b8152600481018c90528c9030906001600160a01b0383169063081812fc9060240160206040518083038186803b15801561061c57600080fd5b505afa158015610630573d6000803e3d6000fd5b505050506040513d601f19601f82011682018060405250810190610654919061138a565b6001600160a01b03161461067b57604051634a7c3fb960e11b815260040160405180910390fd5b60405180604001604052808c8152602001336001600160a01b0316815250600260008f6001600160a01b03166001600160a01b0316815260200190815260200160002060008e81526020019081526020016000206000820151816000015560208201518160010160006101000a8154816001600160a01b0302191690836001600160a01b031602179055509050508b8d6001600160a01b0316336001600160a01b03167fd547e933094f12a9159076970143ebe73234e64480317844b0dcb36117116de48e60405161074f91815260200190565b60405180910390a450505050505050505050505050565b6040516331a9108f60e11b81526004810182905282908290339083906000906001600160a01b03831690636352211e9060240160206040518083038186803b1580156107b157600080fd5b505afa1580156107c5573d6000803e3d6000fd5b505050506040513d601f19601f820116820180604052508101906107e9919061138a565b9050806001600160a01b0316836001600160a01b03161461081d576040516349731c3b60e01b815260040160405180910390fd5b6001600160a01b0380881660009081526002602090815260408083208a84528252918290208251808401909352805480845260019091015490931690820152889188919061089057604051630173285f60e51b81526001600160a01b0384166004820152602481018390526044016102fd565b6001600160a01b038a1660008181526002602090815260408083208d845290915280822082815560010180546001600160a01b0319169055518b929133917f9ba1a3cb55ce8d63d072a886f94d2a744f50cddf82128e897d0661f5ec6231589190a450505050505050505050565b610906610b1c565b6001600160a01b03811661096b5760405162461bcd60e51b815260206004820152602660248201527f4f776e61626c653a206e6577206f776e657220697320746865207a65726f206160448201526564647265737360d01b60648201526084016102fd565b61097481610b76565b50565b61097f610bc8565b6040516331a9108f60e11b81526004810183905283908390339083906000906001600160a01b03831690636352211e9060240160206040518083038186803b1580156109ca57600080fd5b505afa1580156109de573d6000803e3d6000fd5b505050506040513d601f19601f82011682018060405250810190610a02919061138a565b9050806001600160a01b0316836001600160a01b031614610a36576040516349731c3b60e01b815260040160405180910390fd5b6001600160a01b0380891660009081526002602090815260408083208b845282529182902082518084019093528054808452600190910154909316908201528991899190610aa957604051630173285f60e51b81526001600160a01b0384166004820152602481018390526044016102fd565b6001600160a01b038b1660008181526002602090815260408083208e84528252918290208c905590518b81528c929133917fd547e933094f12a9159076970143ebe73234e64480317844b0dcb36117116de4910160405180910390a45050505050505050610b176001600055565b505050565b6001546001600160a01b031633146102845760405162461bcd60e51b815260206004820181905260248201527f4f776e61626c653a2063616c6c6572206973206e6f7420746865206f776e657260448201526064016102fd565b600180546001600160a01b038381166001600160a01b0319831681179093556040519116919082907f8be0079c531659141344cd1fd0a4f28419497f9722a3daafe3b4186f6b6457e090600090a35050565b60026000541415610c1b5760405162461bcd60e51b815260206004820152601f60248201527f5265656e7472616e637947756172643a207265656e7472616e742063616c6c0060448201526064016102fd565b6002600055565b610c2e86868686610e84565b610c4b57604051630573b5db60e11b815260040160405180910390fd5b60015460009061271090610c6a90600160a01b900461ffff16846113bd565b610c7491906113dc565b90506000612710610c8961ffff8716856113bd565b610c9391906113dc565b9050600081610ca284866113fe565b610cac91906113fe565b90506000610cc26001546001600160a01b031690565b6001600160a01b03168460405160006040518083038185875af1925050503d8060008114610d0c576040519150601f19603f3d011682016040523d82523d6000602084013e610d11565b606091505b5050905080610d335760405163019c09f560e31b815260040160405180910390fd5b6000886001600160a01b03168460405160006040518083038185875af1925050503d8060008114610d80576040519150601f19603f3d011682016040523d82523d6000602084013e610d85565b606091505b5050905080610da7576040516372a2856b60e11b815260040160405180910390fd5b6000876001600160a01b03168460405160006040518083038185875af1925050503d8060008114610df4576040519150601f19603f3d011682016040523d82523d6000602084013e610df9565b606091505b5050905080610e1b57604051632dd0202d60e21b815260040160405180910390fd5b6001546040805189815261ffff600160a01b90930483166020820152918b16908201526001600160a01b038916907fa9533a8cb48423f468d953b07ab68765b35fac55a0ca61a55ab5a3ba6e46acca9060600160405180910390a2505050505050505050505050565b60408051606084811b6bffffffffffffffffffffffff1990811660208085019190915260f086901b6001600160f01b03191660348501523390921b1660368301528251602a818403018152604a830184528051908201207f19457468657265756d205369676e6564204d6573736167653a0a333200000000606a84015260868084018290528451808503909101815260a69093019093528151910120600091906000610f668289898080601f016020809104026020016040519081016040528093929190818152602001838380828437600092019190915250610f9392505050565b9050610f7a6001546001600160a01b031690565b6001600160a01b03918216911614979650505050505050565b6000806000610fa28585610fb7565b91509150610faf81610ffd565b509392505050565b600080825160411415610fee5760208301516040840151606085015160001a610fe28782858561114b565b94509450505050610ff6565b506000905060025b9250929050565b600081600481111561101157611011611415565b141561101a5750565b600181600481111561102e5761102e611415565b141561107c5760405162461bcd60e51b815260206004820152601860248201527f45434453413a20696e76616c6964207369676e6174757265000000000000000060448201526064016102fd565b600281600481111561109057611090611415565b14156110de5760405162461bcd60e51b815260206004820152601f60248201527f45434453413a20696e76616c6964207369676e6174757265206c656e6774680060448201526064016102fd565b60038160048111156110f2576110f2611415565b14156109745760405162461bcd60e51b815260206004820152602260248201527f45434453413a20696e76616c6964207369676e6174757265202773272076616c604482015261756560f01b60648201526084016102fd565b6000807f7fffffffffffffffffffffffffffffff5d576e7357a4501ddfe92f46681b20a08311156111825750600090506003611206565b6040805160008082526020820180845289905260ff881692820192909252606081018690526080810185905260019060a0016020604051602081039080840390855afa1580156111d6573d6000803e3d6000fd5b5050604051601f1901519150506001600160a01b0381166111ff57600060019250925050611206565b9150600090505b94509492505050565b803561ffff8116811461122157600080fd5b919050565b60006020828403121561123857600080fd5b6112418261120f565b9392505050565b6001600160a01b038116811461097457600080fd5b60008060008060008060a0878903121561127657600080fd5b863567ffffffffffffffff8082111561128e57600080fd5b818901915089601f8301126112a257600080fd5b8135818111156112b157600080fd5b8a60208285010111156112c357600080fd5b602092830198509650508701356112d981611248565b93506112e76040880161120f565b925060608701356112f781611248565b80925050608087013590509295509295509295565b6000806040838503121561131f57600080fd5b823561132a81611248565b946020939093013593505050565b60008060006060848603121561134d57600080fd5b833561135881611248565b95602085013595506040909401359392505050565b60006020828403121561137f57600080fd5b813561124181611248565b60006020828403121561139c57600080fd5b815161124181611248565b634e487b7160e01b600052601160045260246000fd5b60008160001904831182151516156113d7576113d76113a7565b500290565b6000826113f957634e487b7160e01b600052601260045260246000fd5b500490565b600082821015611410576114106113a7565b500390565b634e487b7160e01b600052602160045260246000fdfea2646970667358221220dc584a56d5eb3ce6b758c32e1a5e3b6bca80f960453df70b44b644ded3cf744164736f6c63430008090033",
  "devdoc": {
    "kind": "dev",
    "methods": {
      "buyItem(bytes,address,uint16,address,uint256)": {
        "details": "- Payable to be able to receive ETH - Should include nonReentrant modifier from Openzeppelin (avoid Reentrancy attack) - Should include isListed modifier - Should check if msg.value > price - Delete listing mapping (item is not listed anymore) - Transfer NFT (using OpenZeppeling safeTransferFrom function) - Send Ether to the user, marketplace owner and collection owner - Emit event"
      },
      "cancelListing(address,uint256)": {
        "details": "- Should include isListed modifier - Should include isOwner - Delete listing mapping (item is not listed anymore) - Emit event"
      },
      "listItem(address,uint256,uint256)": {
        "details": "- Should include notListed and isOwner modifiers - Should check that NFT price is >= 0, if not -> revert - Should check that contract address has approve on the NFT to be transfered, if not -> revert - Update mapping - Emit event"
      },
      "owner()": {
        "details": "Returns the address of the current owner."
      },
      "renounceOwnership()": {
        "details": "Leaves the contract without owner. It will not be possible to call `onlyOwner` functions anymore. Can only be called by the current owner. NOTE: Renouncing ownership will leave the contract without an owner, thereby removing any functionality that is only available to the owner."
      },
      "transferOwnership(address)": {
        "details": "Transfers ownership of the contract to a new account (`newOwner`). Can only be called by the current owner."
      },
      "updateListing(address,uint256,uint256)": {
        "details": "- Should include nonReentrant modifier from Openzeppelin (avoid Reentrancy attack) - Should include isListed modifier - Should include isOwner - Update mapping - Emit event"
      }
    },
    "version": 1
  },
  "userdoc": {
    "events": {
      "ItemListed(address,address,uint256,uint256)": {
        "notice": "Events"
      }
    },
    "kind": "user",
    "methods": {
      "buyItem(bytes,address,uint16,address,uint256)": {
        "notice": "Function to buy an NFT"
      },
      "cancelListing(address,uint256)": {
        "notice": "Function cancel NFT sell listing"
      },
      "listItem(address,uint256,uint256)": {
        "notice": "Function to list an NFT on sell"
      },
      "updateListing(address,uint256,uint256)": {
        "notice": "Function update selling NFT price"
      }
    },
    "version": 1
  },
  "storageLayout": {
    "storage": [
      {
        "astId": 123,
        "contract": "contracts/NftMarketplace.sol:NftMarketplace",
        "label": "_status",
        "offset": 0,
        "slot": "0",
        "type": "t_uint256"
      },
      {
        "astId": 7,
        "contract": "contracts/NftMarketplace.sol:NftMarketplace",
        "label": "_owner",
        "offset": 0,
        "slot": "1",
        "type": "t_address"
      },
      {
        "astId": 3117,
        "contract": "contracts/NftMarketplace.sol:NftMarketplace",
        "label": "_fee",
        "offset": 20,
        "slot": "1",
        "type": "t_uint16"
      },
      {
        "astId": 3124,
        "contract": "contracts/NftMarketplace.sol:NftMarketplace",
        "label": "s_listings",
        "offset": 0,
        "slot": "2",
        "type": "t_mapping(t_address,t_mapping(t_uint256,t_struct(Listing)3113_storage))"
      }
    ],
    "types": {
      "t_address": {
        "encoding": "inplace",
        "label": "address",
        "numberOfBytes": "20"
      },
      "t_mapping(t_address,t_mapping(t_uint256,t_struct(Listing)3113_storage))": {
        "encoding": "mapping",
        "key": "t_address",
        "label": "mapping(address => mapping(uint256 => struct NftMarketplace.Listing))",
        "numberOfBytes": "32",
        "value": "t_mapping(t_uint256,t_struct(Listing)3113_storage)"
      },
      "t_mapping(t_uint256,t_struct(Listing)3113_storage)": {
        "encoding": "mapping",
        "key": "t_uint256",
        "label": "mapping(uint256 => struct NftMarketplace.Listing)",
        "numberOfBytes": "32",
        "value": "t_struct(Listing)3113_storage"
      },
      "t_struct(Listing)3113_storage": {
        "encoding": "inplace",
        "label": "struct NftMarketplace.Listing",
        "members": [
          {
            "astId": 3110,
            "contract": "contracts/NftMarketplace.sol:NftMarketplace",
            "label": "price",
            "offset": 0,
            "slot": "0",
            "type": "t_uint256"
          },
          {
            "astId": 3112,
            "contract": "contracts/NftMarketplace.sol:NftMarketplace",
            "label": "seller",
            "offset": 0,
            "slot": "1",
            "type": "t_address"
          }
        ],
        "numberOfBytes": "64"
      },
      "t_uint16": {
        "encoding": "inplace",
        "label": "uint16",
        "numberOfBytes": "2"
      },
      "t_uint256": {
        "encoding": "inplace",
        "label": "uint256",
        "numberOfBytes": "32"
      }
    }
  }
}