{
  "address": "0xC235e6680f0865188E27Ead5A99D555B0213A6CC",
  "abi": [
    {
      "inputs": [
        {
          "internalType": "address",
          "name": "nftAddress",
          "type": "address"
        },
        {
          "internalType": "uint256",
          "name": "tokenId",
          "type": "uint256"
        }
      ],
      "name": "NftMarketPlace__AlreadyListed",
      "type": "error"
    },
    {
      "inputs": [],
      "name": "NftMarketPlace__CanNotBeOwner",
      "type": "error"
    },
    {
      "inputs": [],
      "name": "NftMarketPlace__CancelOfferProceedsTransferFailed",
      "type": "error"
    },
    {
      "inputs": [],
      "name": "NftMarketPlace__CollectionOwnerProceedsTransferFailed",
      "type": "error"
    },
    {
      "inputs": [],
      "name": "NftMarketPlace__MarketplaceProceedsTransferFailed",
      "type": "error"
    },
    {
      "inputs": [],
      "name": "NftMarketPlace__NotApprovedForMarketPlace",
      "type": "error"
    },
    {
      "inputs": [
        {
          "internalType": "address",
          "name": "nftAddress",
          "type": "address"
        },
        {
          "internalType": "uint256",
          "name": "tokenId",
          "type": "uint256"
        }
      ],
      "name": "NftMarketPlace__NotListed",
      "type": "error"
    },
    {
      "inputs": [],
      "name": "NftMarketPlace__NotOwner",
      "type": "error"
    },
    {
      "inputs": [],
      "name": "NftMarketPlace__NotSignedByMarketplaceOwner",
      "type": "error"
    },
    {
      "inputs": [
        {
          "internalType": "address",
          "name": "nftAddress",
          "type": "address"
        },
        {
          "internalType": "uint256",
          "name": "tokenId",
          "type": "uint256"
        },
        {
          "internalType": "uint256",
          "name": "offerPrice",
          "type": "uint256"
        }
      ],
      "name": "NftMarketPlace__OfferPriceNotMet",
      "type": "error"
    },
    {
      "inputs": [],
      "name": "NftMarketPlace__PriceMustBeAboveZero",
      "type": "error"
    },
    {
      "inputs": [
        {
          "internalType": "address",
          "name": "nftAddress",
          "type": "address"
        },
        {
          "internalType": "uint256",
          "name": "tokenId",
          "type": "uint256"
        },
        {
          "internalType": "uint256",
          "name": "price",
          "type": "uint256"
        }
      ],
      "name": "NftMarketPlace__PriceNotMet",
      "type": "error"
    },
    {
      "inputs": [],
      "name": "NftMarketPlace__SellerProceedsTransferFailed",
      "type": "error"
    },
    {
      "inputs": [
        {
          "internalType": "address",
          "name": "nftAddress",
          "type": "address"
        },
        {
          "internalType": "uint256",
          "name": "tokenId",
          "type": "uint256"
        },
        {
          "internalType": "address",
          "name": "offerAddress",
          "type": "address"
        }
      ],
      "name": "NftMarketplace__AlreadyOffered",
      "type": "error"
    },
    {
      "inputs": [
        {
          "internalType": "address",
          "name": "nftAddress",
          "type": "address"
        },
        {
          "internalType": "uint256",
          "name": "tokenId",
          "type": "uint256"
        },
        {
          "internalType": "address",
          "name": "offerAddress",
          "type": "address"
        }
      ],
      "name": "NftMarketplace__NoOffered",
      "type": "error"
    },
    {
      "anonymous": false,
      "inputs": [
        {
          "indexed": true,
          "internalType": "address",
          "name": "buyer",
          "type": "address"
        },
        {
          "indexed": true,
          "internalType": "address",
          "name": "seller",
          "type": "address"
        },
        {
          "indexed": true,
          "internalType": "address",
          "name": "nftAddress",
          "type": "address"
        },
        {
          "indexed": false,
          "internalType": "uint256",
          "name": "tokenId",
          "type": "uint256"
        },
        {
          "indexed": false,
          "internalType": "uint256",
          "name": "price",
          "type": "uint256"
        }
      ],
      "name": "ItemBought",
      "type": "event"
    },
    {
      "anonymous": false,
      "inputs": [
        {
          "indexed": true,
          "internalType": "address",
          "name": "seller",
          "type": "address"
        },
        {
          "indexed": true,
          "internalType": "address",
          "name": "nftAddress",
          "type": "address"
        },
        {
          "indexed": true,
          "internalType": "uint256",
          "name": "tokenId",
          "type": "uint256"
        }
      ],
      "name": "ItemCanceled",
      "type": "event"
    },
    {
      "anonymous": false,
      "inputs": [
        {
          "indexed": true,
          "internalType": "address",
          "name": "seller",
          "type": "address"
        },
        {
          "indexed": true,
          "internalType": "address",
          "name": "nftAddress",
          "type": "address"
        },
        {
          "indexed": true,
          "internalType": "uint256",
          "name": "tokenId",
          "type": "uint256"
        },
        {
          "indexed": false,
          "internalType": "uint256",
          "name": "price",
          "type": "uint256"
        }
      ],
      "name": "ItemListed",
      "type": "event"
    },
    {
      "anonymous": false,
      "inputs": [
        {
          "indexed": true,
          "internalType": "address",
          "name": "buyer",
          "type": "address"
        },
        {
          "indexed": true,
          "internalType": "address",
          "name": "seller",
          "type": "address"
        },
        {
          "indexed": true,
          "internalType": "address",
          "name": "nftAddress",
          "type": "address"
        },
        {
          "indexed": false,
          "internalType": "uint256",
          "name": "tokenId",
          "type": "uint256"
        },
        {
          "indexed": false,
          "internalType": "uint256",
          "name": "price",
          "type": "uint256"
        }
      ],
      "name": "ItemOfferAccepted",
      "type": "event"
    },
    {
      "anonymous": false,
      "inputs": [
        {
          "indexed": true,
          "internalType": "address",
          "name": "offerAddress",
          "type": "address"
        },
        {
          "indexed": true,
          "internalType": "address",
          "name": "nftAddress",
          "type": "address"
        },
        {
          "indexed": true,
          "internalType": "uint256",
          "name": "tokenId",
          "type": "uint256"
        }
      ],
      "name": "ItemOfferCanceled",
      "type": "event"
    },
    {
      "anonymous": false,
      "inputs": [
        {
          "indexed": true,
          "internalType": "address",
          "name": "offerAddress",
          "type": "address"
        },
        {
          "indexed": true,
          "internalType": "address",
          "name": "nftAddress",
          "type": "address"
        },
        {
          "indexed": true,
          "internalType": "uint256",
          "name": "tokenId",
          "type": "uint256"
        },
        {
          "indexed": false,
          "internalType": "uint256",
          "name": "price",
          "type": "uint256"
        }
      ],
      "name": "ItemOffered",
      "type": "event"
    },
    {
      "anonymous": false,
      "inputs": [
        {
          "indexed": true,
          "internalType": "address",
          "name": "previousOwner",
          "type": "address"
        },
        {
          "indexed": true,
          "internalType": "address",
          "name": "newOwner",
          "type": "address"
        }
      ],
      "name": "OwnershipTransferred",
      "type": "event"
    },
    {
      "anonymous": false,
      "inputs": [
        {
          "indexed": true,
          "internalType": "address",
          "name": "seller",
          "type": "address"
        },
        {
          "indexed": false,
          "internalType": "uint256",
          "name": "totalAmount",
          "type": "uint256"
        },
        {
          "indexed": false,
          "internalType": "uint16",
          "name": "marketplaceFee",
          "type": "uint16"
        },
        {
          "indexed": false,
          "internalType": "uint16",
          "name": "collectionFee",
          "type": "uint16"
        }
      ],
      "name": "ProceedsTransferred",
      "type": "event"
    },
    {
      "inputs": [
        {
          "internalType": "address",
          "name": "nftAddress",
          "type": "address"
        },
        {
          "internalType": "uint256",
          "name": "tokenId",
          "type": "uint256"
        },
        {
          "internalType": "address",
          "name": "collectionOwner",
          "type": "address"
        },
        {
          "internalType": "uint16",
          "name": "collectionFee",
          "type": "uint16"
        },
        {
          "internalType": "address",
          "name": "offerAddress",
          "type": "address"
        }
      ],
      "name": "acceptOffer",
      "outputs": [],
      "stateMutability": "nonpayable",
      "type": "function"
    },
    {
      "inputs": [
        {
          "internalType": "bytes",
          "name": "signature",
          "type": "bytes"
        },
        {
          "internalType": "address",
          "name": "collectionOwner",
          "type": "address"
        },
        {
          "internalType": "uint16",
          "name": "collectionFee",
          "type": "uint16"
        },
        {
          "internalType": "address",
          "name": "nftAddress",
          "type": "address"
        },
        {
          "internalType": "uint256",
          "name": "tokenId",
          "type": "uint256"
        }
      ],
      "name": "buyItem",
      "outputs": [],
      "stateMutability": "payable",
      "type": "function"
    },
    {
      "inputs": [
        {
          "internalType": "address",
          "name": "nftAddress",
          "type": "address"
        },
        {
          "internalType": "uint256",
          "name": "tokenId",
          "type": "uint256"
        }
      ],
      "name": "cancelListing",
      "outputs": [],
      "stateMutability": "nonpayable",
      "type": "function"
    },
    {
      "inputs": [
        {
          "internalType": "address",
          "name": "nftAddress",
          "type": "address"
        },
        {
          "internalType": "uint256",
          "name": "tokenId",
          "type": "uint256"
        }
      ],
      "name": "cancelOffer",
      "outputs": [],
      "stateMutability": "nonpayable",
      "type": "function"
    },
    {
      "inputs": [
        {
          "internalType": "address",
          "name": "nftAddress",
          "type": "address"
        },
        {
          "internalType": "uint256",
          "name": "tokenId",
          "type": "uint256"
        }
      ],
      "name": "getListing",
      "outputs": [
        {
          "components": [
            {
              "internalType": "uint256",
              "name": "price",
              "type": "uint256"
            },
            {
              "internalType": "address",
              "name": "seller",
              "type": "address"
            }
          ],
          "internalType": "struct NftMarketplace.Listing",
          "name": "",
          "type": "tuple"
        }
      ],
      "stateMutability": "view",
      "type": "function"
    },
    {
      "inputs": [],
      "name": "getMarketplaceFee",
      "outputs": [
        {
          "internalType": "uint16",
          "name": "",
          "type": "uint16"
        }
      ],
      "stateMutability": "view",
      "type": "function"
    },
    {
      "inputs": [
        {
          "internalType": "address",
          "name": "nftAddress",
          "type": "address"
        },
        {
          "internalType": "uint256",
          "name": "tokenId",
          "type": "uint256"
        },
        {
          "internalType": "address",
          "name": "offerAddress",
          "type": "address"
        }
      ],
      "name": "getOffer",
      "outputs": [
        {
          "internalType": "uint256",
          "name": "",
          "type": "uint256"
        }
      ],
      "stateMutability": "view",
      "type": "function"
    },
    {
      "inputs": [
        {
          "internalType": "address",
          "name": "nftAddress",
          "type": "address"
        },
        {
          "internalType": "uint256",
          "name": "tokenId",
          "type": "uint256"
        },
        {
          "internalType": "uint256",
          "name": "price",
          "type": "uint256"
        }
      ],
      "name": "listItem",
      "outputs": [],
      "stateMutability": "nonpayable",
      "type": "function"
    },
    {
      "inputs": [
        {
          "internalType": "address",
          "name": "nftAddress",
          "type": "address"
        },
        {
          "internalType": "uint256",
          "name": "tokenId",
          "type": "uint256"
        },
        {
          "internalType": "uint256",
          "name": "offerPrice",
          "type": "uint256"
        }
      ],
      "name": "offer",
      "outputs": [],
      "stateMutability": "payable",
      "type": "function"
    },
    {
      "inputs": [
        {
          "internalType": "address",
          "name": "",
          "type": "address"
        },
        {
          "internalType": "uint256",
          "name": "",
          "type": "uint256"
        },
        {
          "internalType": "address",
          "name": "",
          "type": "address"
        }
      ],
      "name": "offers",
      "outputs": [
        {
          "internalType": "uint256",
          "name": "",
          "type": "uint256"
        }
      ],
      "stateMutability": "view",
      "type": "function"
    },
    {
      "inputs": [],
      "name": "owner",
      "outputs": [
        {
          "internalType": "address",
          "name": "",
          "type": "address"
        }
      ],
      "stateMutability": "view",
      "type": "function"
    },
    {
      "inputs": [],
      "name": "renounceOwnership",
      "outputs": [],
      "stateMutability": "nonpayable",
      "type": "function"
    },
    {
      "inputs": [
        {
          "internalType": "uint16",
          "name": "newFee",
          "type": "uint16"
        }
      ],
      "name": "setMarketplaceFee",
      "outputs": [],
      "stateMutability": "nonpayable",
      "type": "function"
    },
    {
      "inputs": [
        {
          "internalType": "address",
          "name": "newOwner",
          "type": "address"
        }
      ],
      "name": "transferOwnership",
      "outputs": [],
      "stateMutability": "nonpayable",
      "type": "function"
    },
    {
      "inputs": [
        {
          "internalType": "address",
          "name": "nftAddress",
          "type": "address"
        },
        {
          "internalType": "uint256",
          "name": "tokenId",
          "type": "uint256"
        },
        {
          "internalType": "uint256",
          "name": "newPrice",
          "type": "uint256"
        }
      ],
      "name": "updateListing",
      "outputs": [],
      "stateMutability": "nonpayable",
      "type": "function"
    }
  ],
  "transactionHash": "0x489343385783ab83ecfc5d9894853938872e0f5f9a2ef547382f6170b2210136",
  "args": [],
  "numDeployments": 1,
  "solcInputHash": "dd4a9b205f499b26b29fd1266c0ee4bf",
  "bytecode": "0x60806040526001805461ffff60a01b1916607d60a11b17905534801561002457600080fd5b50600160005561003333610038565b61008a565b600180546001600160a01b038381166001600160a01b0319831681179093556040519116919082907f8be0079c531659141344cd1fd0a4f28419497f9722a3daafe3b4186f6b6457e090600090a35050565b611ec3806100996000396000f3fe6080604052600436106100e85760003560e01c8063796bd8cf1161008a578063b2ddee0611610059578063b2ddee06146102ee578063d3f494cc1461030e578063f2fde38b1461034c578063f772adf11461036c57600080fd5b8063796bd8cf1461020657806388700d1c1461021957806389bfd38f146102a65780638da5cb5b146102c657600080fd5b806326a7b37b116100c657806326a7b37b14610190578063675b27a7146101be578063715018a6146101de57806374a46050146101f357600080fd5b80630168033a146100ed578063058a56ac1461014e5780630a45d4f414610170575b600080fd5b3480156100f957600080fd5b5061013b610108366004611bde565b6001600160a01b039283166000908152600360209081526040808320948352938152838220929094168152925290205490565b6040519081526020015b60405180910390f35b34801561015a57600080fd5b5061016e610169366004611c20565b61038c565b005b34801561017c57600080fd5b5061016e61018b366004611c63565b6105aa565b34801561019c57600080fd5b50600154600160a01b900461ffff1660405161ffff9091168152602001610145565b3480156101ca57600080fd5b5061016e6101d9366004611c85565b6105d4565b3480156101ea57600080fd5b5061016e6107f8565b61016e610201366004611ceb565b61080c565b61016e610214366004611d20565b6109ec565b34801561022557600080fd5b50610282610234366004611c20565b604080518082018252600080825260209182018190526001600160a01b0394851681526002825282812093815292815291819020815180830190925280548252600101549092169082015290565b60408051825181526020928301516001600160a01b03169281019290925201610145565b3480156102b257600080fd5b5061016e6102c1366004611ceb565b610c10565b3480156102d257600080fd5b506001546040516001600160a01b039091168152602001610145565b3480156102fa57600080fd5b5061016e610309366004611c20565b610ee9565b34801561031a57600080fd5b5061013b610329366004611bde565b600360209081526000938452604080852082529284528284209052825290205481565b34801561035857600080fd5b5061016e610367366004611dcf565b611081565b34801561037857600080fd5b5061016e610387366004611ceb565b6110fa565b61039461129f565b6040516331a9108f60e11b81526004810182905282908290339083906000906001600160a01b03831690636352211e9060240160206040518083038186803b1580156103df57600080fd5b505afa1580156103f3573d6000803e3d6000fd5b505050506040513d601f19601f820116820180604052508101906104179190611dec565b9050806001600160a01b0316836001600160a01b0316141561044c57604051630af24daf60e41b815260040160405180910390fd5b6001600160a01b038716600090815260036020908152604080832089845282528083203384529091529020546104b257604051634aa7c3ad60e01b81526001600160a01b0388166004820152602481018790523360448201526064015b60405180910390fd5b6001600160a01b038716600090815260036020908152604080832089845282528083203380855292528083205490518381818185875af1925050503d8060008114610519576040519150601f19603f3d011682016040523d82523d6000602084013e61051e565b606091505b5050905080610540576040516314ca515560e11b815260040160405180910390fd5b6001600160a01b03881660008181526003602090815260408083208b84528252808320338085529252808320839055518a93927f74f47aee1c38f3959502001d4b09d457c2ef6fb8d33498e41e876b859c51c68591a45050505050506105a66001600055565b5050565b6105b26112f9565b6001805461ffff909216600160a01b0261ffff60a01b19909216919091179055565b6105dc61129f565b6040516331a9108f60e11b81526004810185905285908590339083906000906001600160a01b03831690636352211e9060240160206040518083038186803b15801561062757600080fd5b505afa15801561063b573d6000803e3d6000fd5b505050506040513d601f19601f8201168201806040525081019061065f9190611dec565b9050806001600160a01b0316836001600160a01b031614610693576040516349731c3b60e01b815260040160405180910390fd5b6001600160a01b03808b1660009081526003602090815260408083208d84528252808320938a16835292905220546106f857604051634aa7c3ad60e01b81526001600160a01b03808c166004830152602482018b9052871660448201526064016104a9565b6001600160a01b038a811660008181526003602090815260408083208e84528252808320948b1680845294909152808220805492905551632142170760e11b81523360048201526024810193909352604483018c9052916342842e0e90606401600060405180830381600087803b15801561077257600080fd5b505af1158015610786573d6000803e3d6000fd5b5050505061079689893384611353565b604080518b8152602081018390526001600160a01b03808e16923392918b16917fe752335f35623c8e598d88c255681fbd747a7022db022654069d90c2c46edfec910160405180910390a45050505050506107f16001600055565b5050505050565b6108006112f9565b61080a600061158a565b565b6040516331a9108f60e11b81526004810183905283908390339083906000906001600160a01b03831690636352211e9060240160206040518083038186803b15801561085757600080fd5b505afa15801561086b573d6000803e3d6000fd5b505050506040513d601f19601f8201168201806040525081019061088f9190611dec565b9050806001600160a01b0316836001600160a01b031614156108c457604051630af24daf60e41b815260040160405180910390fd5b6001600160a01b03881660009081526003602090815260408083208a845282528083203384529091529020541561092657604051637b35356960e01b81526001600160a01b0389166004820152602481018890523360448201526064016104a9565b85341015610960576040516313ec6f3f60e21b81526001600160a01b038916600482015260248101889052604481018790526064016104a9565b8561097e576040516301e6e2e760e01b815260040160405180910390fd5b6001600160a01b03881660008181526003602090815260408083208b8452825280832033808552908352928190208a9055518981528a9392917f4fa6eac84df74d1007c6a26cb8fdd8f939ab5056976a641bf2df01912a882f47910160405180910390a45050505050505050565b6109f461129f565b6001600160a01b03808316600090815260026020908152604080832085845282529182902082518084019093528054808452600190910154909316908201528391839190610a6757604051630173285f60e51b81526001600160a01b0384166004820152602481018390526044016104a9565b6001600160a01b038086166000908152600260209081526040808320888452825291829020825180840190935280548084526001909101549093169082015290341015610ae3578051604051632425ddb360e01b81526001600160a01b03881660048201526024810187905260448101919091526064016104a9565b6001600160a01b0386811660008181526002602090815260408083208a84528252808320928355600190920180546001600160a01b03191690558401519051632142170760e11b81529216600483015233602483015260448201879052906342842e0e90606401600060405180830381600087803b158015610b6457600080fd5b505af1158015610b78573d6000803e3d6000fd5b50505050610b928a8a8a8a856020015186600001516115dc565b856001600160a01b031681602001516001600160a01b0316336001600160a01b03167fe9c622981335737fc4980ad7fa82f2007d350d10c84d88f14dc9d217be270277888560000151604051610bf2929190918252602082015260400190565b60405180910390a450505050610c086001600055565b505050505050565b6001600160a01b0380841660009081526002602090815260408083208684528252918290208251808401909352805480845260019091015490931690820152849184919015610c845760405163fa1d424f60e01b81526001600160a01b0384166004820152602481018390526044016104a9565b6040516331a9108f60e11b81526004810186905286908690339083906000906001600160a01b03831690636352211e9060240160206040518083038186803b158015610ccf57600080fd5b505afa158015610ce3573d6000803e3d6000fd5b505050506040513d601f19601f82011682018060405250810190610d079190611dec565b9050806001600160a01b0316836001600160a01b031614610d3b576040516349731c3b60e01b815260040160405180910390fd5b60008911610d5c576040516301e6e2e760e01b815260040160405180910390fd5b60405163020604bf60e21b8152600481018b90528b9030906001600160a01b0383169063081812fc9060240160206040518083038186803b158015610da057600080fd5b505afa158015610db4573d6000803e3d6000fd5b505050506040513d601f19601f82011682018060405250810190610dd89190611dec565b6001600160a01b031614610dff57604051634a7c3fb960e11b815260040160405180910390fd5b60405180604001604052808b8152602001336001600160a01b0316815250600260008e6001600160a01b03166001600160a01b0316815260200190815260200160002060008d81526020019081526020016000206000820151816000015560208201518160010160006101000a8154816001600160a01b0302191690836001600160a01b031602179055509050508a8c6001600160a01b0316336001600160a01b03167fd547e933094f12a9159076970143ebe73234e64480317844b0dcb36117116de48d604051610ed391815260200190565b60405180910390a4505050505050505050505050565b6040516331a9108f60e11b81526004810182905282908290339083906000906001600160a01b03831690636352211e9060240160206040518083038186803b158015610f3457600080fd5b505afa158015610f48573d6000803e3d6000fd5b505050506040513d601f19601f82011682018060405250810190610f6c9190611dec565b9050806001600160a01b0316836001600160a01b031614610fa0576040516349731c3b60e01b815260040160405180910390fd5b6001600160a01b0380881660009081526002602090815260408083208a84528252918290208251808401909352805480845260019091015490931690820152889188919061101357604051630173285f60e51b81526001600160a01b0384166004820152602481018390526044016104a9565b6001600160a01b038a1660008181526002602090815260408083208d845290915280822082815560010180546001600160a01b0319169055518b929133917f9ba1a3cb55ce8d63d072a886f94d2a744f50cddf82128e897d0661f5ec6231589190a450505050505050505050565b6110896112f9565b6001600160a01b0381166110ee5760405162461bcd60e51b815260206004820152602660248201527f4f776e61626c653a206e6577206f776e657220697320746865207a65726f206160448201526564647265737360d01b60648201526084016104a9565b6110f78161158a565b50565b61110261129f565b6040516331a9108f60e11b81526004810183905283908390339083906000906001600160a01b03831690636352211e9060240160206040518083038186803b15801561114d57600080fd5b505afa158015611161573d6000803e3d6000fd5b505050506040513d601f19601f820116820180604052508101906111859190611dec565b9050806001600160a01b0316836001600160a01b0316146111b9576040516349731c3b60e01b815260040160405180910390fd5b6001600160a01b0380891660009081526002602090815260408083208b84528252918290208251808401909352805480845260019091015490931690820152899189919061122c57604051630173285f60e51b81526001600160a01b0384166004820152602481018390526044016104a9565b6001600160a01b038b1660008181526002602090815260408083208e84528252918290208c905590518b81528c929133917fd547e933094f12a9159076970143ebe73234e64480317844b0dcb36117116de4910160405180910390a4505050505050505061129a6001600055565b505050565b600260005414156112f25760405162461bcd60e51b815260206004820152601f60248201527f5265656e7472616e637947756172643a207265656e7472616e742063616c6c0060448201526064016104a9565b6002600055565b6001546001600160a01b0316331461080a5760405162461bcd60e51b815260206004820181905260248201527f4f776e61626c653a2063616c6c6572206973206e6f7420746865206f776e657260448201526064016104a9565b6001546000906127109061137290600160a01b900461ffff1684611e1f565b61137c9190611e3e565b9050600061271061139161ffff871685611e1f565b61139b9190611e3e565b90506000816113aa8486611e60565b6113b49190611e60565b905060006113ca6001546001600160a01b031690565b6001600160a01b03168460405160006040518083038185875af1925050503d8060008114611414576040519150601f19603f3d011682016040523d82523d6000602084013e611419565b606091505b505090508061143b5760405163019c09f560e31b815260040160405180910390fd5b6000886001600160a01b03168460405160006040518083038185875af1925050503d8060008114611488576040519150601f19603f3d011682016040523d82523d6000602084013e61148d565b606091505b50509050806114af576040516372a2856b60e11b815260040160405180910390fd5b6000876001600160a01b03168460405160006040518083038185875af1925050503d80600081146114fc576040519150601f19603f3d011682016040523d82523d6000602084013e611501565b606091505b505090508061152357604051632dd0202d60e21b815260040160405180910390fd5b6001546040805189815261ffff600160a01b90930483166020820152918b16908201526001600160a01b038916907fa9533a8cb48423f468d953b07ab68765b35fac55a0ca61a55ab5a3ba6e46acca9060600160405180910390a250505050505050505050565b600180546001600160a01b038381166001600160a01b0319831681179093556040519116919082907f8be0079c531659141344cd1fd0a4f28419497f9722a3daafe3b4186f6b6457e090600090a35050565b6115e88686868661183e565b61160557604051630573b5db60e11b815260040160405180910390fd5b6001546000906127109061162490600160a01b900461ffff1684611e1f565b61162e9190611e3e565b9050600061271061164361ffff871685611e1f565b61164d9190611e3e565b905060008161165c8486611e60565b6116669190611e60565b9050600061167c6001546001600160a01b031690565b6001600160a01b03168460405160006040518083038185875af1925050503d80600081146116c6576040519150601f19603f3d011682016040523d82523d6000602084013e6116cb565b606091505b50509050806116ed5760405163019c09f560e31b815260040160405180910390fd5b6000886001600160a01b03168460405160006040518083038185875af1925050503d806000811461173a576040519150601f19603f3d011682016040523d82523d6000602084013e61173f565b606091505b5050905080611761576040516372a2856b60e11b815260040160405180910390fd5b6000876001600160a01b03168460405160006040518083038185875af1925050503d80600081146117ae576040519150601f19603f3d011682016040523d82523d6000602084013e6117b3565b606091505b50509050806117d557604051632dd0202d60e21b815260040160405180910390fd5b6001546040805189815261ffff600160a01b90930483166020820152918b16908201526001600160a01b038916907fa9533a8cb48423f468d953b07ab68765b35fac55a0ca61a55ab5a3ba6e46acca9060600160405180910390a2505050505050505050505050565b60408051606084811b6bffffffffffffffffffffffff1990811660208085019190915260f086901b6001600160f01b03191660348501523390921b1660368301528251602a818403018152604a830184528051908201207f19457468657265756d205369676e6564204d6573736167653a0a333200000000606a84015260868084018290528451808503909101815260a690930190935281519101206000919060006119208289898080601f01602080910402602001604051908101604052809392919081815260200183838082843760009201919091525061194d92505050565b90506119346001546001600160a01b031690565b6001600160a01b03918216911614979650505050505050565b600080600061195c8585611971565b91509150611969816119b7565b509392505050565b6000808251604114156119a85760208301516040840151606085015160001a61199c87828585611b05565b945094505050506119b0565b506000905060025b9250929050565b60008160048111156119cb576119cb611e77565b14156119d45750565b60018160048111156119e8576119e8611e77565b1415611a365760405162461bcd60e51b815260206004820152601860248201527f45434453413a20696e76616c6964207369676e6174757265000000000000000060448201526064016104a9565b6002816004811115611a4a57611a4a611e77565b1415611a985760405162461bcd60e51b815260206004820152601f60248201527f45434453413a20696e76616c6964207369676e6174757265206c656e6774680060448201526064016104a9565b6003816004811115611aac57611aac611e77565b14156110f75760405162461bcd60e51b815260206004820152602260248201527f45434453413a20696e76616c6964207369676e6174757265202773272076616c604482015261756560f01b60648201526084016104a9565b6000807f7fffffffffffffffffffffffffffffff5d576e7357a4501ddfe92f46681b20a0831115611b3c5750600090506003611bc0565b6040805160008082526020820180845289905260ff881692820192909252606081018690526080810185905260019060a0016020604051602081039080840390855afa158015611b90573d6000803e3d6000fd5b5050604051601f1901519150506001600160a01b038116611bb957600060019250925050611bc0565b9150600090505b94509492505050565b6001600160a01b03811681146110f757600080fd5b600080600060608486031215611bf357600080fd5b8335611bfe81611bc9565b9250602084013591506040840135611c1581611bc9565b809150509250925092565b60008060408385031215611c3357600080fd5b8235611c3e81611bc9565b946020939093013593505050565b803561ffff81168114611c5e57600080fd5b919050565b600060208284031215611c7557600080fd5b611c7e82611c4c565b9392505050565b600080600080600060a08688031215611c9d57600080fd5b8535611ca881611bc9565b9450602086013593506040860135611cbf81611bc9565b9250611ccd60608701611c4c565b91506080860135611cdd81611bc9565b809150509295509295909350565b600080600060608486031215611d0057600080fd5b8335611d0b81611bc9565b95602085013595506040909401359392505050565b60008060008060008060a08789031215611d3957600080fd5b863567ffffffffffffffff80821115611d5157600080fd5b818901915089601f830112611d6557600080fd5b813581811115611d7457600080fd5b8a6020828501011115611d8657600080fd5b60209283019850965050870135611d9c81611bc9565b9350611daa60408801611c4c565b92506060870135611dba81611bc9565b80925050608087013590509295509295509295565b600060208284031215611de157600080fd5b8135611c7e81611bc9565b600060208284031215611dfe57600080fd5b8151611c7e81611bc9565b634e487b7160e01b600052601160045260246000fd5b6000816000190483118215151615611e3957611e39611e09565b500290565b600082611e5b57634e487b7160e01b600052601260045260246000fd5b500490565b600082821015611e7257611e72611e09565b500390565b634e487b7160e01b600052602160045260246000fdfea2646970667358221220fef634b59d88649ce8255a82bab6230f5049f7719a28a9fd281a3a97b785135964736f6c63430008090033",
  "devdoc": {
    "kind": "dev",
    "methods": {
      "buyItem(bytes,address,uint16,address,uint256)": {
        "details": "- Payable to be able to receive ETH - Should include nonReentrant modifier from Openzeppelin (avoid Reentrancy attack) - Should include isListed modifier - Should check if msg.value > price - Delete listing mapping (item is not listed anymore) - Transfer NFT (using OpenZeppeling safeTransferFrom function) - Send Ether to the user, marketplace owner and collection owner - Emit event"
      },
      "cancelListing(address,uint256)": {
        "details": "- Should include isListed modifier - Should include isOwner - Delete listing mapping (item is not listed anymore) - Emit event"
      },
      "listItem(address,uint256,uint256)": {
        "details": "- Should include notListed and isOwner modifiers - Should check that NFT price is >= 0, if not -> revert - Should check that contract address has approve on the NFT to be transfered, if not -> revert - Update mapping - Emit event"
      },
      "owner()": {
        "details": "Returns the address of the current owner."
      },
      "renounceOwnership()": {
        "details": "Leaves the contract without owner. It will not be possible to call `onlyOwner` functions anymore. Can only be called by the current owner. NOTE: Renouncing ownership will leave the contract without an owner, thereby removing any functionality that is only available to the owner."
      },
      "transferOwnership(address)": {
        "details": "Transfers ownership of the contract to a new account (`newOwner`). Can only be called by the current owner."
      },
      "updateListing(address,uint256,uint256)": {
        "details": "- Should include nonReentrant modifier from Openzeppelin (avoid Reentrancy attack) - Should include isListed modifier - Should include isOwner - Update mapping - Emit event"
      }
    },
    "version": 1
  },
  "userdoc": {
    "events": {
      "ItemListed(address,address,uint256,uint256)": {
        "notice": "Events"
      }
    },
    "kind": "user",
    "methods": {
      "buyItem(bytes,address,uint16,address,uint256)": {
        "notice": "Function to buy an NFT"
      },
      "cancelListing(address,uint256)": {
        "notice": "Function cancel NFT sell listing"
      },
      "listItem(address,uint256,uint256)": {
        "notice": "Function to list an NFT on sell"
      },
      "updateListing(address,uint256,uint256)": {
        "notice": "Function update selling NFT price"
      }
    },
    "version": 1
  },
  "storageLayout": {
    "storage": [
      {
        "astId": 123,
        "contract": "contracts/NftMarketplace.sol:NftMarketplace",
        "label": "_status",
        "offset": 0,
        "slot": "0",
        "type": "t_uint256"
      },
      {
        "astId": 7,
        "contract": "contracts/NftMarketplace.sol:NftMarketplace",
        "label": "_owner",
        "offset": 0,
        "slot": "1",
        "type": "t_address"
      },
      {
        "astId": 3145,
        "contract": "contracts/NftMarketplace.sol:NftMarketplace",
        "label": "_fee",
        "offset": 20,
        "slot": "1",
        "type": "t_uint16"
      },
      {
        "astId": 3152,
        "contract": "contracts/NftMarketplace.sol:NftMarketplace",
        "label": "s_listings",
        "offset": 0,
        "slot": "2",
        "type": "t_mapping(t_address,t_mapping(t_uint256,t_struct(Listing)3141_storage))"
      },
      {
        "astId": 3160,
        "contract": "contracts/NftMarketplace.sol:NftMarketplace",
        "label": "offers",
        "offset": 0,
        "slot": "3",
        "type": "t_mapping(t_address,t_mapping(t_uint256,t_mapping(t_address,t_uint256)))"
      }
    ],
    "types": {
      "t_address": {
        "encoding": "inplace",
        "label": "address",
        "numberOfBytes": "20"
      },
      "t_mapping(t_address,t_mapping(t_uint256,t_mapping(t_address,t_uint256)))": {
        "encoding": "mapping",
        "key": "t_address",
        "label": "mapping(address => mapping(uint256 => mapping(address => uint256)))",
        "numberOfBytes": "32",
        "value": "t_mapping(t_uint256,t_mapping(t_address,t_uint256))"
      },
      "t_mapping(t_address,t_mapping(t_uint256,t_struct(Listing)3141_storage))": {
        "encoding": "mapping",
        "key": "t_address",
        "label": "mapping(address => mapping(uint256 => struct NftMarketplace.Listing))",
        "numberOfBytes": "32",
        "value": "t_mapping(t_uint256,t_struct(Listing)3141_storage)"
      },
      "t_mapping(t_address,t_uint256)": {
        "encoding": "mapping",
        "key": "t_address",
        "label": "mapping(address => uint256)",
        "numberOfBytes": "32",
        "value": "t_uint256"
      },
      "t_mapping(t_uint256,t_mapping(t_address,t_uint256))": {
        "encoding": "mapping",
        "key": "t_uint256",
        "label": "mapping(uint256 => mapping(address => uint256))",
        "numberOfBytes": "32",
        "value": "t_mapping(t_address,t_uint256)"
      },
      "t_mapping(t_uint256,t_struct(Listing)3141_storage)": {
        "encoding": "mapping",
        "key": "t_uint256",
        "label": "mapping(uint256 => struct NftMarketplace.Listing)",
        "numberOfBytes": "32",
        "value": "t_struct(Listing)3141_storage"
      },
      "t_struct(Listing)3141_storage": {
        "encoding": "inplace",
        "label": "struct NftMarketplace.Listing",
        "members": [
          {
            "astId": 3138,
            "contract": "contracts/NftMarketplace.sol:NftMarketplace",
            "label": "price",
            "offset": 0,
            "slot": "0",
            "type": "t_uint256"
          },
          {
            "astId": 3140,
            "contract": "contracts/NftMarketplace.sol:NftMarketplace",
            "label": "seller",
            "offset": 0,
            "slot": "1",
            "type": "t_address"
          }
        ],
        "numberOfBytes": "64"
      },
      "t_uint16": {
        "encoding": "inplace",
        "label": "uint16",
        "numberOfBytes": "2"
      },
      "t_uint256": {
        "encoding": "inplace",
        "label": "uint256",
        "numberOfBytes": "32"
      }
    }
  }
}